{
  "contractName": "ReliefDistribution",
  "abi": [
    {
      "inputs": [],
      "stateMutability": "nonpayable",
      "type": "constructor"
    },
    {
      "anonymous": false,
      "inputs": [
        {
          "indexed": true,
          "internalType": "address",
          "name": "from",
          "type": "address"
        },
        {
          "indexed": false,
          "internalType": "uint256",
          "name": "amount",
          "type": "uint256"
        }
      ],
      "name": "BalanceRemoved",
      "type": "event"
    },
    {
      "anonymous": false,
      "inputs": [
        {
          "indexed": true,
          "internalType": "address",
          "name": "from",
          "type": "address"
        },
        {
          "indexed": false,
          "internalType": "uint256",
          "name": "amount",
          "type": "uint256"
        }
      ],
      "name": "FundAdded",
      "type": "event"
    },
    {
      "anonymous": false,
      "inputs": [
        {
          "indexed": true,
          "internalType": "address",
          "name": "from",
          "type": "address"
        },
        {
          "indexed": true,
          "internalType": "address",
          "name": "to",
          "type": "address"
        },
        {
          "indexed": false,
          "internalType": "uint256",
          "name": "amount",
          "type": "uint256"
        }
      ],
      "name": "FundsTransferred",
      "type": "event"
    },
    {
      "anonymous": false,
      "inputs": [
        {
          "indexed": true,
          "internalType": "address",
          "name": "to",
          "type": "address"
        },
        {
          "indexed": false,
          "internalType": "uint256",
          "name": "amount",
          "type": "uint256"
        }
      ],
      "name": "ReliefDistributed",
      "type": "event"
    },
    {
      "inputs": [],
      "name": "admin",
      "outputs": [
        {
          "internalType": "address",
          "name": "",
          "type": "address"
        }
      ],
      "stateMutability": "view",
      "type": "function",
      "constant": true
    },
    {
      "inputs": [
        {
          "internalType": "address",
          "name": "",
          "type": "address"
        }
      ],
      "name": "balances",
      "outputs": [
        {
          "internalType": "uint256",
          "name": "",
          "type": "uint256"
        }
      ],
      "stateMutability": "view",
      "type": "function",
      "constant": true
    },
    {
      "inputs": [
        {
          "internalType": "address",
          "name": "",
          "type": "address"
        }
      ],
      "name": "registeredCardholders",
      "outputs": [
        {
          "internalType": "bool",
          "name": "",
          "type": "bool"
        }
      ],
      "stateMutability": "view",
      "type": "function",
      "constant": true
    },
    {
      "inputs": [
        {
          "internalType": "address",
          "name": "cardholder",
          "type": "address"
        }
      ],
      "name": "registerCardholder",
      "outputs": [],
      "stateMutability": "nonpayable",
      "type": "function"
    },
    {
      "inputs": [],
      "name": "addFunds",
      "outputs": [],
      "stateMutability": "payable",
      "type": "function",
      "payable": true
    },
    {
      "inputs": [
        {
          "internalType": "address payable",
          "name": "cardholder",
          "type": "address"
        },
        {
          "internalType": "uint256",
          "name": "amount",
          "type": "uint256"
        }
      ],
      "name": "distributeRelief",
      "outputs": [],
      "stateMutability": "nonpayable",
      "type": "function"
    },
    {
      "inputs": [
        {
          "internalType": "address payable",
          "name": "to",
          "type": "address"
        },
        {
          "internalType": "uint256",
          "name": "amount",
          "type": "uint256"
        }
      ],
      "name": "transferFunds",
      "outputs": [],
      "stateMutability": "nonpayable",
      "type": "function"
    },
    {
      "inputs": [
        {
          "internalType": "address payable",
          "name": "to",
          "type": "address"
        },
        {
          "internalType": "uint256",
          "name": "amount",
          "type": "uint256"
        }
      ],
      "name": "removeBalance",
      "outputs": [],
      "stateMutability": "nonpayable",
      "type": "function"
    }
  ],
  "bytecode": "0x608060405234801561001057600080fd5b5073e6118dee2b5ad0ef223c9d18e7205c61276cb2b56000806101000a81548173ffffffffffffffffffffffffffffffffffffffff021916908373ffffffffffffffffffffffffffffffffffffffff1602179055506001600260008060009054906101000a900473ffffffffffffffffffffffffffffffffffffffff1673ffffffffffffffffffffffffffffffffffffffff1673ffffffffffffffffffffffffffffffffffffffff16815260200190815260200160002060006101000a81548160ff0219169083151502179055506001600260007367b78c81e588ae632a6785c8c905542dc1995ae173ffffffffffffffffffffffffffffffffffffffff1673ffffffffffffffffffffffffffffffffffffffff16815260200190815260200160002060006101000a81548160ff0219169083151502179055506001600260007302596fb70fe2f0f28b0219561ef5d13cfa72b4e073ffffffffffffffffffffffffffffffffffffffff1673ffffffffffffffffffffffffffffffffffffffff16815260200190815260200160002060006101000a81548160ff021916908315150217905550611226806101c56000396000f3fe60806040526004361061007b5760003560e01c8063990dc9db1161004e578063990dc9db1461014c578063a26759cb14610175578063af0825af1461017f578063f851a440146101a85761007b565b8063011ef2f1146100805780631a772f44146100a957806327e235e3146100d2578063312911df1461010f575b600080fd5b34801561008c57600080fd5b506100a760048036038101906100a29190610d1b565b6101d3565b005b3480156100b557600080fd5b506100d060048036038101906100cb9190610cf2565b6104a0565b005b3480156100de57600080fd5b506100f960048036038101906100f49190610cf2565b610589565b604051610106919061106c565b60405180910390f35b34801561011b57600080fd5b5061013660048036038101906101319190610cf2565b6105a1565b6040516101439190610f91565b60405180910390f35b34801561015857600080fd5b50610173600480360381019061016e9190610d1b565b6105c1565b005b61017d6108b7565b005b34801561018b57600080fd5b506101a660048036038101906101a19190610d1b565b610a2e565b005b3480156101b457600080fd5b506101bd610c8f565b6040516101ca9190610f76565b60405180910390f35b60008054906101000a900473ffffffffffffffffffffffffffffffffffffffff1673ffffffffffffffffffffffffffffffffffffffff163373ffffffffffffffffffffffffffffffffffffffff1614610261576040517f08c379a00000000000000000000000000000000000000000000000000000000081526004016102589061104c565b60405180910390fd5b600260008373ffffffffffffffffffffffffffffffffffffffff1673ffffffffffffffffffffffffffffffffffffffff16815260200190815260200160002060009054906101000a900460ff166102ed576040517f08c379a00000000000000000000000000000000000000000000000000000000081526004016102e49061102c565b60405180910390fd5b80600160008060009054906101000a900473ffffffffffffffffffffffffffffffffffffffff1673ffffffffffffffffffffffffffffffffffffffff1673ffffffffffffffffffffffffffffffffffffffff168152602001908152602001600020541015610390576040517f08c379a000000000000000000000000000000000000000000000000000000000815260040161038790610fec565b60405180910390fd5b80600160008060009054906101000a900473ffffffffffffffffffffffffffffffffffffffff1673ffffffffffffffffffffffffffffffffffffffff1673ffffffffffffffffffffffffffffffffffffffff168152602001908152602001600020600082825461040091906110ee565b925050819055508173ffffffffffffffffffffffffffffffffffffffff166108fc829081150290604051600060405180830381858888f1935050505015801561044d573d6000803e3d6000fd5b508173ffffffffffffffffffffffffffffffffffffffff167ff758feb6452e532605b2d943c0ff72edb6eeabc7e3483706027e78ac0d043cc682604051610494919061106c565b60405180910390a25050565b60008054906101000a900473ffffffffffffffffffffffffffffffffffffffff1673ffffffffffffffffffffffffffffffffffffffff163373ffffffffffffffffffffffffffffffffffffffff161461052e576040517f08c379a00000000000000000000000000000000000000000000000000000000081526004016105259061104c565b60405180910390fd5b6001600260008373ffffffffffffffffffffffffffffffffffffffff1673ffffffffffffffffffffffffffffffffffffffff16815260200190815260200160002060006101000a81548160ff02191690831515021790555050565b60016020528060005260406000206000915090505481565b60026020528060005260406000206000915054906101000a900460ff1681565b600260003373ffffffffffffffffffffffffffffffffffffffff1673ffffffffffffffffffffffffffffffffffffffff16815260200190815260200160002060009054906101000a900460ff1661064d576040517f08c379a000000000000000000000000000000000000000000000000000000000815260040161064490610fac565b60405180910390fd5b600260008373ffffffffffffffffffffffffffffffffffffffff1673ffffffffffffffffffffffffffffffffffffffff16815260200190815260200160002060009054906101000a900460ff166106d9576040517f08c379a00000000000000000000000000000000000000000000000000000000081526004016106d090610fcc565b60405180910390fd5b80600160003373ffffffffffffffffffffffffffffffffffffffff1673ffffffffffffffffffffffffffffffffffffffff16815260200190815260200160002054101561075b576040517f08c379a000000000000000000000000000000000000000000000000000000000815260040161075290610fec565b60405180910390fd5b80600160003373ffffffffffffffffffffffffffffffffffffffff1673ffffffffffffffffffffffffffffffffffffffff16815260200190815260200160002060008282546107aa91906110ee565b9250508190555080600160008473ffffffffffffffffffffffffffffffffffffffff1673ffffffffffffffffffffffffffffffffffffffff16815260200190815260200160002060008282546108009190611098565b925050819055508173ffffffffffffffffffffffffffffffffffffffff166108fc829081150290604051600060405180830381858888f1935050505015801561084d573d6000803e3d6000fd5b508173ffffffffffffffffffffffffffffffffffffffff163373ffffffffffffffffffffffffffffffffffffffff167f78e6250172d8e0a57d8d41f480f13581571a2d27bb2a93f5f7bd2511f5c22a6c836040516108ab919061106c565b60405180910390a35050565b60008054906101000a900473ffffffffffffffffffffffffffffffffffffffff1673ffffffffffffffffffffffffffffffffffffffff163373ffffffffffffffffffffffffffffffffffffffff1614610945576040517f08c379a000000000000000000000000000000000000000000000000000000000815260040161093c9061104c565b60405180910390fd5b60003411610988576040517f08c379a000000000000000000000000000000000000000000000000000000000815260040161097f9061100c565b60405180910390fd5b34600160003373ffffffffffffffffffffffffffffffffffffffff1673ffffffffffffffffffffffffffffffffffffffff16815260200190815260200160002060008282546109d79190611098565b925050819055503373ffffffffffffffffffffffffffffffffffffffff167f558a436a9db526ac67ef37696ad60895448e3776371a4de56e785768716a27b834604051610a24919061106c565b60405180910390a2565b60008054906101000a900473ffffffffffffffffffffffffffffffffffffffff1673ffffffffffffffffffffffffffffffffffffffff163373ffffffffffffffffffffffffffffffffffffffff1614610abc576040517f08c379a0000000000000000000000000000000000000000000000000000000008152600401610ab39061104c565b60405180910390fd5b80600160008060009054906101000a900473ffffffffffffffffffffffffffffffffffffffff1673ffffffffffffffffffffffffffffffffffffffff1673ffffffffffffffffffffffffffffffffffffffff168152602001908152602001600020541015610b5f576040517f08c379a0000000000000000000000000000000000000000000000000000000008152600401610b5690610fec565b60405180910390fd5b80600160008060009054906101000a900473ffffffffffffffffffffffffffffffffffffffff1673ffffffffffffffffffffffffffffffffffffffff1673ffffffffffffffffffffffffffffffffffffffff1681526020019081526020016000206000828254610bcf91906110ee565b925050819055508173ffffffffffffffffffffffffffffffffffffffff166108fc829081150290604051600060405180830381858888f19350505050158015610c1c573d6000803e3d6000fd5b5060008054906101000a900473ffffffffffffffffffffffffffffffffffffffff1673ffffffffffffffffffffffffffffffffffffffff167f5a1c92aed98847a7bc54adb3787dd01acf596840cda7083a2a5b43ab71e9bbe482604051610c83919061106c565b60405180910390a25050565b60008054906101000a900473ffffffffffffffffffffffffffffffffffffffff1681565b600081359050610cc2816111ab565b92915050565b600081359050610cd7816111c2565b92915050565b600081359050610cec816111d9565b92915050565b600060208284031215610d0457600080fd5b6000610d1284828501610cb3565b91505092915050565b60008060408385031215610d2e57600080fd5b6000610d3c85828601610cc8565b9250506020610d4d85828601610cdd565b9150509250929050565b610d6081611122565b82525050565b610d6f81611146565b82525050565b6000610d82603283611087565b91507f4f6e6c7920726567697374657265642063617264686f6c646572732063616e2060008301527f63616c6c20746869732066756e6374696f6e00000000000000000000000000006020830152604082019050919050565b6000610de8602883611087565b91507f526563697069656e74206973206e6f742061207265676973746572656420636160008301527f7264686f6c6465720000000000000000000000000000000000000000000000006020830152604082019050919050565b6000610e4e601283611087565b91507f496e73756666696369656e742066756e647300000000000000000000000000006000830152602082019050919050565b6000610e8e601f83611087565b91507f416d6f756e742073686f756c642062652067726561746572207468616e2030006000830152602082019050919050565b6000610ece601c83611087565b91507f43617264686f6c646572206973206e6f742072656769737465726564000000006000830152602082019050919050565b6000610f0e602183611087565b91507f4f6e6c792061646d696e2063616e2063616c6c20746869732066756e6374696f60008301527f6e000000000000000000000000000000000000000000000000000000000000006020830152604082019050919050565b610f7081611172565b82525050565b6000602082019050610f8b6000830184610d57565b92915050565b6000602082019050610fa66000830184610d66565b92915050565b60006020820190508181036000830152610fc581610d75565b9050919050565b60006020820190508181036000830152610fe581610ddb565b9050919050565b6000602082019050818103600083015261100581610e41565b9050919050565b6000602082019050818103600083015261102581610e81565b9050919050565b6000602082019050818103600083015261104581610ec1565b9050919050565b6000602082019050818103600083015261106581610f01565b9050919050565b60006020820190506110816000830184610f67565b92915050565b600082825260208201905092915050565b60006110a382611172565b91506110ae83611172565b9250827fffffffffffffffffffffffffffffffffffffffffffffffffffffffffffffffff038211156110e3576110e261117c565b5b828201905092915050565b60006110f982611172565b915061110483611172565b9250828210156111175761111661117c565b5b828203905092915050565b600061112d82611152565b9050919050565b600061113f82611152565b9050919050565b60008115159050919050565b600073ffffffffffffffffffffffffffffffffffffffff82169050919050565b6000819050919050565b7f4e487b7100000000000000000000000000000000000000000000000000000000600052601160045260246000fd5b6111b481611122565b81146111bf57600080fd5b50565b6111cb81611134565b81146111d657600080fd5b50565b6111e281611172565b81146111ed57600080fd5b5056fea2646970667358221220ea8a360259e0355de0d2bca246ba3f1c6b9e0d1b44b13c14548926a009b117bd64736f6c63430008000033",
  "immutableReferences": {},
  "source": "// SPDX-License-Identifier: MIT\r\npragma solidity ^0.8.0;\r\n\r\ncontract ReliefDistribution {\r\n    address public admin;\r\n    mapping(address => uint256) public balances;\r\n    mapping(address => bool) public registeredCardholders;\r\n\r\n    event FundAdded(address indexed from, uint256 amount);\r\n    event ReliefDistributed(address indexed to, uint256 amount);\r\n    event BalanceRemoved(address indexed from, uint256 amount);\r\n    event FundsTransferred(address indexed from, address indexed to, uint256 amount);\r\n\r\n    constructor() {\r\n        admin = 0xE6118dee2b5AD0Ef223c9d18e7205C61276Cb2b5;\r\n        registeredCardholders[admin] = true;\r\n        registeredCardholders[0x67B78C81E588AE632A6785c8C905542dC1995ae1] = true;\r\n        registeredCardholders[0x02596FB70Fe2f0f28b0219561EF5d13cfA72B4E0] = true;\r\n    }\r\n\r\n    modifier onlyAdmin() {\r\n        require(msg.sender == admin, \"Only admin can call this function\");\r\n        _;\r\n    }\r\n\r\n    modifier onlyRegisteredCardholder() {\r\n        require(registeredCardholders[msg.sender], \"Only registered cardholders can call this function\");\r\n        _;\r\n    }\r\n\r\n    function registerCardholder(address cardholder) public onlyAdmin {\r\n        registeredCardholders[cardholder] = true;\r\n    }\r\n\r\n    function addFunds() public payable onlyAdmin {\r\n        require(msg.value > 0, \"Amount should be greater than 0\");\r\n        balances[msg.sender] += msg.value;\r\n        emit FundAdded(msg.sender, msg.value);\r\n    }\r\n\r\n    function distributeRelief(address payable cardholder, uint256 amount) public onlyAdmin {\r\n        require(registeredCardholders[cardholder], \"Cardholder is not registered\");\r\n        require(balances[admin] >= amount, \"Insufficient funds\");\r\n\r\n        balances[admin] -= amount;\r\n        cardholder.transfer(amount);\r\n\r\n        emit ReliefDistributed(cardholder, amount);\r\n    }\r\n\r\n    function transferFunds(address payable to, uint256 amount) public onlyRegisteredCardholder {\r\n        require(registeredCardholders[to], \"Recipient is not a registered cardholder\");\r\n        require(balances[msg.sender] >= amount, \"Insufficient funds\");\r\n\r\n        balances[msg.sender] -= amount;\r\n        balances[to] += amount;\r\n\r\n        to.transfer(amount);\r\n\r\n        emit FundsTransferred(msg.sender, to, amount);\r\n    }\r\n\r\n    function removeBalance(address payable to, uint256 amount) public onlyAdmin {\r\n        require(balances[admin] >= amount, \"Insufficient funds\");\r\n\r\n        balances[admin] -= amount;\r\n        to.transfer(amount);\r\n\r\n        emit BalanceRemoved(admin, amount);\r\n    }\r\n}\r\n",
  "sourcePath": "C:\\Users\\kurtr\\OneDrive\\Desktop\\bluecard\\contracts\\ReliefDistribution.sol",
  "compiler": {
    "name": "solc",
    "version": "0.8.0+commit.c7dfd78e.Emscripten.clang"
  },
  "schemaVersion": "3.4.16",
  "updatedAt": "2024-06-07T02:20:51.386Z",
  "networkType": "ethereum",
  "devdoc": {
    "kind": "dev",
    "methods": {},
    "version": 1
  },
  "userdoc": {
    "kind": "user",
    "methods": {},
    "version": 1
  }
}